:100000000C947F010C949E010C949E010C949E0113
:100010000C949E010C949E010C949E010C949E01E4
:100020000C949E010C949E010C949E010C949E01D4
:100030000C949E010C949E010C949E010C949E01C4
:100040000C949E010C949E010C949E010C949E01B4
:100050000C949E010C949E010C949E010C949E01A4
:100060000C949E010C949E010C949E010C949E0194
:100070000C949E010C949E010C949E010C949E0184
:100080000C949E010C949E010C949E010C949E0174
:100090000C949E010C949E010C949E010C949E0164
:1000A0000C949E010C949E010C949E010C949E0154
:1000B0000C949E010C949E010C949E010C949E0144
:1000C0000C949E010C949E010C949E010C949E0134
:1000D0000C949E010C949E010C949E010C949E0124
:1000E0000C949E010C949E01E72DE72DE72DED2D3C
:1000F000ED2DED2DF42DF42DF42DFB2DFE2DFE2DEB
:10010000383280323A323C323E324032423244322D
:10011000463248327E327E327E327E327E327E32CD
:100120007E327E327E327E327E327E327E327E324F
:100130007E327E327E327E327E327E327E327E323F
:100140007E327E327E327E327E327E327E327E322F
:100150007E327E327E327E327E327E327E327E321F
:100160007E324A324C324E32503252325432563251
:1001700058325A325C325E326032623264326632F7
:1001800068326A326C326E32703272327432763267
:1001900078327A327C328B32A9328D328F32913280
:1001A00093329532973299329B32A732A732A732D7
:1001B000A732A732A732A732A732A732A732A73277
:1001C000A732A732A732A732A732A732A732A1326D
:1001D000A732A732A732A732A732A732A732A73257
:1001E000A732A732A732A732A732A732A732A73247
:1001F000A732A732A732A732A732A732A732A73237
:10020000A732A732A732A732A732A732A732A73226
:10021000A732A732A732A332A732A732A732A7321A
:10022000A732A732A732A732A732A732A732A73206
:10023000A732A732A732A732A732A732A732A732F6
:10024000A732A732A7329F32A732A732A732A732EE
:10025000A732A732A732A732A732A732A732A732D6
:10026000A732A732A732A732A732A732A732A732C6
:10027000A732A732A732A732A732A732A732A732B6
:10028000A732A732A732A732A732A732A7329D32B0
:10029000A732A732A732A53208000000BE92244937
:1002A000123EABAAAA2ABECDCCCC4C3E00000080A8
:1002B000BEABAAAAAA3E00000000BF000000803F1B
:1002C0000000000000084178D3BB4387D1133D19DB
:1002D0000E3CC3BD4282AD2B3E68EC8276BED98F08
:1002E000E1A93E4C80EFFFBE01C4FF7F3F0000004C
:1002F00000006364696E6F70737578585B00112439
:100300001FBECFEFCDBFDFE7DEBF16E4A0E0B0E455
:10031000EAE5F7E800E00BBF02C007900D92AC31B0
:10032000B107D9F724E5ACE1B6E401C01D92A43CC5
:10033000B207E1F70E94C32E0C94AB430C9400006B
:100340000E94C0330895EF92FF920F931F93CF93B3
:10035000DF93CDB7DEB7A097CDBFDEBF8C01F62E01
:10036000E72E19821A82FE0133968EE1DF011D927B
:100370008A95E9F785B1806285B981B38B7F81BBAE
:10038000F801E457FF4F10821182F4978081918128
:1003900086608083918345EA54E560E070E480E004
:1003A00090E00E94EE2245EA54E568E070E080E0CB
:1003B00090E00E94EE22CE0101969F938F9380E100
:1003C00090E49F938F93EF92FF920E948F3D109243
:1003D000B0541092B1541092B2541092B354F80128
:1003E000E258FF4F80E095E3ACE0B0E0808391837A
:1003F000A283B38389819A810F900F900F900F9001
:100400000F900F908130910571F43E9681E090E05D
:100410008083918345EA54E560E470E080E090E0F9
:100420000E94EE2211C0029779F4F801E457FF4FC1
:1004300082E090E08083918345EA54E560E070E1DA
:1004400080E090E00E94EE22A096CDBFDEBFDF915B
:10045000CF911F910F91FF90EF900895EF92FF922F
:100460000F931F93CF93DF93CDB7DEB76E97CDBFBA
:10047000DEBF8C01FE0131968EE1DF011D928A956F
:10048000E9F71092B0541092B1541092B2541092F5
:10049000B354F801E457FF4F808180FF0AC08EE516
:1004A00094E50E946729F801E257FF4F808391830A
:1004B00010C081FF0EC021E633E540E050E065E169
:1004C00070E081E00E94572AF801E257FF4F8083D5
:1004D00091837801BCE8EB0EF11CF70180819181DA
:1004E00084608083918345EA54E568E070E080E0B1
:1004F00090E00E94EE2245EA54E560E877E080E073
:1005000090E00E94022345EA54E560E870E080E054
:1005100090E00E94EE22D70111968C9111978F9353
:100520008C918F93F801E257FF4F81818F938081E7
:100530008F9387E190E49F938F938E010F5F1F4FFE
:100540001F930F930E94663D1092B0541092B154C5
:100550001092B2541092B35461E0C8010E947D170A
:1005600045EA54E560E070E088E090E00E94EE2209
:10057000CDBFDEBF6E96CDBFDEBFDF91CF911F91A5
:100580000F91FF90EF900895EF92FF920F931F93BA
:10059000CF93DF93CDB7DEB76E97CDBFDEBF8C01B3
:1005A000FE0131968EE1DF011D928A95E9F71092E6
:1005B000B0541092B1541092B2541092B354F80146
:1005C000E457FF4F808180FF0AC08EE594E50E94CA
:1005D0006729F801EE56FF4F8083918310C081FF99
:1005E0000EC021E633E540E050E065E170E081E0D7
:1005F0000E94572AF801EE56FF4F808391837801BD
:10060000BCE8EB0EF11CF70180819181886080834A
:10061000918345EA54E560E877E080E090E00E944D
:10062000022345EA54E560E072E080E090E00E9439
:10063000EE2245EA54E568E070E080E090E00E9438
:10064000EE22D70111968C9111978F938C918F93F5
:10065000F801EE56FF4F81818F9380818F9389E25D
:1006600090E49F938F938E010F5F1F4F1F930F9303
:100670000E94663D1092B0541092B1541092B25440
:100680001092B35461E0C8010E947D1745EA54E519
:1006900060E070E088E090E00E94EE22CDBFDEBF17
:1006A0006E96CDBFDEBFDF91CF911F910F91FF906E
:1006B000EF900895EF92FF920F931F93CF93DF93E4
:1006C000CDB7DEB76E97CDBFDEBF8C01FE01319690
:1006D0008EE1DF011D928A95E9F71092B0541092D5
:1006E000B1541092B2541092B354F801E457FF4F32
:1006F000808180FF0AC08EE594E50E946729F80199
:10070000EC56FF4F8083918310C081FF0EC021E61D
:1007100033E540E050E065E170E081E00E94572A57
:10072000F801EC56FF4F808391837801BCE8EB0E13
:10073000F11CF7018081918180618083918345EA7A
:1007400054E560E877E080E090E00E94022345EA0B
:1007500054E560E074E080E090E00E94EE2245EA1B
:1007600054E568E070E080E090E00E94EE22D7015E
:1007700011968C9111978F938C918F93F801EC5671
:10078000FF4F81818F9380818F938BE390E49F93C0
:100790008F938E010F5F1F4F1F930F930E94663D33
:1007A0001092B0541092B1541092B2541092B354AB
:1007B00061E0C8010E947D1745EA54E560E070E001
:1007C00088E090E00E94EE22CDBFDEBF6E96CDBFE6
:1007D000DEBFDF91CF911F910F91FF90EF900895B1
:1007E0002F923F924F925F926F927F928F929F9241
:1007F000AF92BF92CF92DF92EF92FF920F931F932F
:10080000CF93DF93CDB7DEB7C255D109CDBFDEBFE1
:100810008C01FE01319686E4DF011D928A95E9F78D
:10082000412C512C80E090E8ABEBB4E42F968CAFD8
:100830009DAFAEAFBFAF2F9760961FAE609761962A
:100840001FAE619762961FAE629791E463969FAF69
:1008500063970F2EC12CF0E8DF2EFBEBEF2EF4E4B4
:10086000FF2EF02DB12CA12C912C0F2EF1E48F2E08
:10087000F02D87C0F801EC56FF4F60817181072E83
:10088000000C880B990B0E94D83A2B966CAF7DAF69
:100890008EAF9FAF2B979B01AC01C701B6010E94A1
:1008A000353C20E030E547ED55E40E942E3A9B01AF
:1008B000AC012B966CAD7DAD8EAD9FAD2B970E949C
:1008C000BD392F966CAF7DAF8EAF9FAF2F97F801DC
:1008D000E257FF4F60817181072E000C880B990B46
:1008E0000E94D83A2B966CAF7DAF8EAF9FAF2B97FF
:1008F0009B01AC01C701B6010E94353C20E030E00D
:1009000045E254E40E942E3A9B01AC012B966CAD5B
:100910007DAD8EAD9FAD2B970E94BD392B966CAFF0
:100920007DAF8EAF9FAF2B9720E030E0A9010E94F2
:10093000293A882391F02B962CAD3DAD4EAD5FAD9D
:100940002B972F966CAD7DAD8EAD9FAD2F970E94EE
:100950002E3AB62EA72E982E892E2DEC3CEC4CE488
:100960005EE3C701B6010E94BD396B017C01AFEFA8
:100970004A1A5A0AA895B1E84B16BEE35B060CF07A
:100980008FC025EC30E240E85FE36B2D7A2D892D96
:10099000982D0E94293A18160CF46CCF27E73EEBED
:1009A0004FE75FE36B2D7A2D892D982D0E94E03B58
:1009B00088230CF45FCF2F96CCAEDDAEEEAEFFAE4B
:1009C0002F976096BFAE60976196AFAE61976296C3
:1009D0009FAE629763968FAE639774C0F801EC5632
:1009E000FF4F60817181072E000C880B990B0E94CC
:1009F000D83A4B015C019B01AC01C701B6010E94D2
:100A0000BC3920E030E547ED55E40E94353CA501B6
:100A100094010E942E3A2B966CAF7DAF8EAF9FAFA4
:100A20002B97F801E257FF4F60817181072E000C70
:100A3000880B990B0E94D83A4B015C019B01AC01D9
:100A4000C701B6010E94BC3920E030E045E254E421
:100A50000E94353CA50194010E942E3A9B01AC01F5
:100A60002B966CAD7DAD8EAD9FAD2B970E942E3A2F
:100A7000662E772E882E992E2DEC3CEC4CE45EE30E
:100A8000C701B6010E94BD396B017C01EFEF2E1A40
:100A90003E0AA895F1EB2F16F6E33F0624F13DC080
:100AA0002F966CAF7DAF8EAF9FAF2F976096BFAE86
:100AB00060976196AFAE619762969FAE62976396BC
:100AC0008FAE6397212C312C0F2EC12CD12CF8E442
:100AD000EF2EF4E4FF2EF02D612C712C812C0F2EC3
:100AE000F1E49F2EF02D25EC30E240E85FE3662D27
:100AF000772D882D992D0E94293A18160CF46ECF67
:100B000027E73EEB4FE75FE3662D772D882D992D84
:100B10000E94E03B88230CF461CFF801E457FF4FBB
:100B2000A080B1808DE1A816B104A1F42F966CAD20
:100B30007DAD8EAD9FAD2F970E94A03AD8011C9637
:100B40006D937C931D97C701B6010E94A03AF801EE
:100B500066877787FEE1AF16B104A1F42F966CADDE
:100B60007DAD8EAD9FAD2F970E94A03AD8015096D3
:100B70006D937C935197C701B6010E94A03AF8018A
:100B8000628B738BBF92AF923F922F925F924F9284
:100B9000F801EC56FF4F81818F9380818F933297BC
:100BA00081818F9380818F93349781818F9380810E
:100BB0008F939F928F927F926F926396FFAD639710
:100BC000FF9362968FAD62978F9361969FAD619709
:100BD0009F936096AFAD6097AF93C701B6010E9437
:100BE000A03A7F936F932F966CAD7DAD8EAD9FAD88
:100BF0002F970E94A03A7F936F938DE490E49F9388
:100C00008F938E010F5F1F4F1F930F930E94663DBE
:100C1000C8010E942D1A45EA54E568E070E080E0C2
:100C200090E00E94EE2245EA54E560EC7FE780E028
:100C300090E00E94022385B18F7D85B981B38460E5
:100C400081BBCDBFDEBFCE5ADF4FCDBFDEBFDF9150
:100C5000CF911F910F91FF90EF90DF90CF90BF90B9
:100C6000AF909F908F907F906F905F904F903F904C
:100C70002F900895DF92EF92FF920F931F93CF93DF
:100C8000DF93CDB7DEB76E97CDBFDEBF8C01FE011F
:100C900031968EE1DF011D928A95E9F7F801E4575C
:100CA000FF4F808191814D9791F5F80185858F9354
:100CB00084858F9383E790E49F938F93CE01019671
:100CC0007C019F938F930E94663DC7010E94ED07B0
:100CD0008EE1D7011D928A95E9F7F80187858F93F8
:100CE00086858F938AE790E49F938F93FF92EF928C
:100CF0000E94663DC7010E94220845EA54E568E06B
:100D000070E080E090E00E94EE22CDBFDEBFF801EF
:100D1000E457FF4F808191814E9709F043C00F2E19
:100D2000FEE1DF2EF02DDE0111967D01FD012D2D5E
:100D300011922A95E9F7D80151968C9151978F938A
:100D400050968C918F9381E890E49F938F93FF92BC
:100D5000EF920E94663DC7010E945708C7010E949A
:100D60002D1AF7011192DA94E9F7D80153968C9174
:100D700053978F9352968C918F9388E890E49F932A
:100D80008F93FF92EF920E94663DC7010E948C08EC
:100D900045EA54E568E070E080E090E00E94EE22D1
:100DA000CDBFDEBF7801FCE8EF0EF11CD7018D91BD
:100DB0009C91119780648D939C9345EA54E568E07B
:100DC00070E080E090E00E94EE22F70181818F9335
:100DD00080818F93389681818F9380818F938FE864
:100DE00090E49F938F938E010F5F1F4F1F930F937C
:100DF0000E94663DD7011D921C92C8010E942D1AC7
:100E0000BFEFE9EFF0E0B150E040F040E1F700C0A3
:100E10000000C8010E942D1ACDBFDEBF6E96CDBF67
:100E2000DEBFDF91CF911F910F91FF90EF90DF9088
:100E300008950F931F93CF93DF931F92CDB7DEB723
:100E40008C01CE0101969F938F9381EB92E59F9346
:100E50008F9381EA90E49F938F931F930F930E9447
:100E60008F3D8981CDBFDEBF893591F4B8016D5FBB
:100E70007F4F44E050E08AE090E00E947034EDEA59
:100E8000F2E580819181826032E0832780839183C3
:100E90000F90DF91CF911F910F9108950F931F93A2
:100EA000CF93DF931F92CDB7DEB78C01CE010196B1
:100EB0009F938F9387EB92E59F938F938AEA90E4B9
:100EC0009F938F931F930F930E948F3D8981CDBF76
:100ED000DEBF893591F4B8016D5F7F4F44E050E08B
:100EE00084E190E00E947034EDEAF2E58081918126
:100EF000886038E08327808391830F90DF91CF91C2
:100F00001F910F9108950F931F93CF93DF931F921B
:100F1000CDB7DEB78C01CE0101969F938F9383EB03
:100F200092E59F938F9383EB90E49F938F931F930E
:100F30000F930E948F3D8981CDBFDEBF893591F42B
:100F4000B8016D5F7F4F44E050E08FE090E00E9479
:100F50007034EDEAF2E580819181846034E083278A
:100F6000808391830F90DF91CF911F910F9108950E
:100F70000F931F93CF93DF931F92CDB7DEB78C01F2
:100F8000CE0101969F938F9385EB92E59F938F936C
:100F90008CEB90E49F938F931F930F930E948F3D50
:100FA0008981CDBFDEBF893591F4B8016D5F7F4F78
:100FB00044E050E081E391E00E947034EDEAF2E514
:100FC00082819381846034E08327828393830F90AE
:100FD000DF91CF911F910F9108950F931F93CF939E
:100FE000DF931F92CDB7DEB78C01CE0101969F93A0
:100FF0008F9389EB92E59F938F9385EC90E49F9379
:101000008F931F930F930E948F3D8981CDBFDEBFC9
:10101000893591F4B8016D5F7F4F44E050E089E17C
:1010200090E00E947034EDEAF2E580819181806168
:1010300030E18327808391830F90DF91CF911F91BF
:101040000F9108950F931F93CF93DF931F92CDB706
:10105000DEB78C01CE0101969F938F938BEB92E5C7
:101060009F938F938EEC90E49F938F931F930F9396
:101070000E948F3D8981CDBFDEBF893591F4B801D3
:101080006D5F7F4F44E050E08EE190E00E9470344D
:10109000EDEAF2E580819181806230E283278083EE
:1010A00091830F90DF91CF911F910F9108950F932E
:1010B0001F93CF93DF931F92CDB7DEB78C01CE0184
:1010C00001969F938F938DEB92E59F938F9387ED7E
:1010D00090E49F938F931F930F930E948F3D89817C
:1010E000CDBFDEBF893591F4B8016D5F7F4F44E01D
:1010F00050E08DE191E00E947034EDEAF2E58281EA
:101100009381816031E08327828393830F90DF9105
:10111000CF911F910F9108950F931F93CF93DF935A
:101120001F92CDB7DEB78C01CE0101969F938F93AE
:101130008FEB92E59F938F9380EE90E49F938F9334
:101140001F930F930E948F3D8981CDBFDEBF8935EC
:1011500091F4B8016D5F7F4F44E050E081E291E08F
:101160000E947034EDEAF2E582819381826032E080
:101170008327828393830F90DF91CF911F910F91EB
:1011800008950F931F93CF93DF931F92CDB7DEB7D0
:101190008C01CE0101969F938F9381EC92E59F93F2
:1011A0008F9389EE90E49F938F931F930F930E94E8
:1011B0008F3D8981CDBFDEBF893591F4B8016D5F68
:1011C0007F4F44E050E082EC90E00E947034EDEA02
:1011D000F2E580819181816031E083278083918372
:1011E0000F90DF91CF911F910F9108950F931F934F
:1011F000CF93DF93CDB7DEB72597CDBFDEBF8C0190
:10120000CE0101969F938F9301969F938F9385ECC8
:1012100092E59F938F9383EF90E49F938F931F9317
:101220000F930E948F3D8981CDBFDEBF893591F438
:10123000B8016D5F7F4F44E050E086ED90E00E9482
:101240007034EDEAF2E580819181816031E083279D
:10125000808391832596CDBFDEBFDF91CF911F9113
:101260000F9108950F931F93CF93DF93CDB7DEB700
:101270002597CDBFDEBF8C018DB18F778DB9CE01A3
:1012800001969F938F9301969F938F9389EC92E59C
:101290009F938F9382E091E49F938F931F930F937B
:1012A0000E948F3D8981CDBFDEBF893591F4B801A1
:1012B0006D5F7F4F44E050E08AEE90E00E94703412
:1012C000EDEAF2E580819181816031E083278083BE
:1012D00091832596CDBFDEBFDF91CF911F910F91F6
:1012E00008950F931F93CF93DF931F92CDB7DEB76F
:1012F0008C01CE0101969F938F938DEC92E59F9385
:101300008F9381E191E49F938F931F930F930E949A
:101310008F3D8981CDBFDEBF893591F4B8016D5F06
:101320007F4F44E050E082E790E00E947034EDEAA5
:10133000F2E580819181816031E083278083918310
:101340000F90DF91CF911F910F9108950F931F93ED
:10135000CF93DF931F92CDB7DEB78C01CE010196FC
:101360009F938F9385ED92E59F938F938AE191E40C
:101370009F938F931F930F930E948F3D8981CDBFC1
:10138000DEBF893591F4B8016D5F7F4F44E050E0D6
:1013900085E291E00E947034EDEAF2E5828193816A
:1013A000886038E08327828393830F90DF91CF9109
:1013B0001F910F9108950F931F93CF93DF931F9267
:1013C000CDB7DEB78C01CE0101969F938F9387ED49
:1013D00092E59F938F9383E291E49F938F931F9362
:1013E0000F930E948F3D8981CDBFDEBF893591F477
:1013F000B8016D5F7F4F44E050E089E291E00E94C8
:101400007034EDEAF2E582819381806130E18327D7
:10141000828393830F90DF91CF911F910F91089555
:101420000F931F93CF93DF931F92CDB7DEB78C013D
:10143000CE0101969F938F9389ED92E59F938F93B1
:101440008CE291E49F938F931F930F930E948F3DA3
:101450008981CDBFDEBF893591F4B8016D5F7F4FC3
:1014600044E050E086E890E00E947034EDEAF2E556
:1014700080819181816031E08327808391830F9007
:10148000DF91CF911F910F9108950F931F93CF93E9
:10149000DF93CDB7DEB72597CDBFDEBF8C01CE0180
:1014A00001969F938F9301969F938F938DED92E575
:1014B0009F938F9386E391E49F938F931F930F9352
:1014C0000E948F3D8981CDBFDEBF893591F4B8017F
:1014D0006D5F7F4F44E050E08AE990E00E947034F5
:1014E000EDEAF2E580819181816031E0832780839C
:1014F00091832596CDBFDEBFDF91CF911F910F91D4
:1015000008950F931F93CF93DF93CDB7DEB7259741
:10151000CDBFDEBF8C01CE0101969F938F930196C4
:101520009F938F9381EE92E59F938F9385E491E44F
:101530009F938F931F930F930E948F3D8981CDBFFF
:10154000DEBF893591F4B8016D5F7F4F44E050E014
:101550008EEA90E00E947034EDEAF2E5808191819C
:10156000816031E08327808391832596CDBFDEBFE4
:10157000DF91CF911F910F9108950F931F93CF93F8
:10158000DF931F92CDB7DEB78C01CE0101969F93FA
:101590008F9385EE92E59F938F9384E591E49F93DB
:1015A0008F931F930F930E948F3D8981CDBFDEBF24
:1015B000893591F4B8016D5F7F4F44E050E08CE7CE
:1015C00090E00E947034EDEAF2E5808191818160C3
:1015D00031E08327808391830F90DF91CF911F911A
:1015E0000F9108950F931F93CF93DF931F92CDB761
:1015F000DEB78C01CE0101969F938F938DEE92E51D
:101600009F938F938DE591E49F938F931F930F93F7
:101610000E948F3D8981CDBFDEBF893591F4B8012D
:101620006D5F7F4F44E050E085E891E00E947034A8
:10163000EDEAF2E582819381806230E28327828342
:1016400093830F90DF91CF911F910F9108950F9386
:101650001F93CF93DF931F92CDB7DEB78C01CE01DE
:1016600001969F938F938FEE92E59F938F9386E6DB
:1016700091E49F938F931F930F930E948F3D8981D5
:10168000CDBFDEBF893591F4B8016D5F7F4F44E077
:1016900050E089E891E00E947034EDEAF2E5828141
:1016A0009381806430E48327828393830F90DF915A
:1016B000CF911F910F9108950F931F93CF93DF93B5
:1016C0001F92CDB7DEB78C01CE0101969F938F9309
:1016D00081EF92E59F938F938FE691E49F938F9391
:1016E0001F930F930E948F3D8981CDBFDEBF893547
:1016F00091F4B8016D5F7F4F44E050E08DE491E0DC
:101700000E947034EDEAF2E580819181816031E0E0
:101710008327808391830F90DF91CF911F910F9149
:1017200008950F931F93CF93DF93CDB7DEB725971F
:10173000CDBFDEBF8C01CE0101969F938F930196A2
:101740009F938F9385EF92E59F938F9389E791E421
:101750009F938F931F930F930E948F3D8981CDBFDD
:10176000DEBF893591F4B8016D5F7F4F44E050E0F2
:1017700081E691E00E947034EDEAF2E5808191818A
:10178000816031E08327808391832596CDBFDEBFC2
:10179000DF91CF911F910F9108950F931F93CF93D6
:1017A000DF93CDB7DEB72597CDBFDEBF8C01CE016D
:1017B00001969F938F9301969F938F9389EF92E564
:1017C0009F938F9388E891E49F938F931F930F9338
:1017D0000E948F3D8981CDBFDEBF893591F4B8016C
:1017E0006D5F7F4F44E050E085E791E00E947034E8
:1017F000EDEAF2E580819181816031E08327808389
:1018000091832596CDBFDEBFDF91CF911F910F91C0
:1018100008950F931F93CF93DF931F92CDB7DEB739
:101820008C01CE0101969F938F938DEF92E59F934C
:101830008F9387E991E49F938F931F930F930E9457
:101840008F3D8981CDBFDEBF893591F4B8016D5FD1
:101850007F4F44E050E083E491E00E947034EDEA71
:10186000F2E580819181816031E0832780839183DB
:101870000F90DF91CF911F910F9108950F931F93B8
:10188000CF93DF931F92CDB7DEB7062F172F9E01A0
:101890002F5F3F4F3F932F937F936F9320EA31E465
:1018A0003F932F939F938F930E948F3D44E050E08E
:1018B0006AEA71E4802F912F0E94583DCDBFDEBFB0
:1018C000892B51F0E5E0F3E580819181816031E081
:1018D00083278083918311C044E050E06FEA71E474
:1018E000802F912F0E94583D892B39F0E5E0F3E5D8
:1018F0008081918181608083918389818935A1F480
:101900008DB18F778DB90DEA12E56091055383E0B3
:1019100090E00E944D34F801808191818160F1E076
:101920008F27F801808391830F90DF91CF911F91D2
:101930000F9108950F931F93CF93DF931F92CDB70D
:10194000DEB7062F172F9E012F5F3F4F3F932F9338
:101950007F936F9324EB31E43F932F939F938F9367
:101960000E948F3D44E050E06EEB71E4802F912F98
:101970000E94583DCDBFDEBF892B51F0E5E0F3E575
:1019800080819181846034E083278083918311C0BA
:1019900044E050E063EC71E4802F912F0E94583DA9
:1019A000892B39F0E5E0F3E58081918184608083C3
:1019B000918389818935A1F48DB18F778DB90DEA35
:1019C00012E56091055383E090E00E944D34F801E8
:1019D000808191818160F1E08F27F801808391837C
:1019E0000F90DF91CF911F910F9108950F931F9347
:1019F000CF93DF931F92CDB7DEB7062F172F9E012F
:101A00002F5F3F4F3F932F937F936F9328EC31E4E9
:101A10003F932F939F938F930E948F3D44E050E01C
:101A200062ED71E4802F912F0E94583DCDBFDEBF43
:101A3000892B51F0E5E0F3E580819181826032E00D
:101A400083278083918311C044E050E067ED71E407
:101A5000802F912F0E94583D892B39F0E5E0F3E566
:101A60008081918182608083918389818935A1F40D
:101A70008DB18F778DB90DEA12E56091055383E042
:101A800090E00E944D34F801808191818160F1E005
:101A90008F27F801808391830F90DF91CF911F9161
:101AA0000F9108950F931F93CF93DF931F92CDB79C
:101AB000DEB7062F172F9E012F5F3F4F3F932F93C7
:101AC0007F936F932CED31E43F932F939F938F93EC
:101AD0000E948F3D44E050E066EE71E4802F912F2C
:101AE0000E94583DCDBFDEBF892B51F0E5E0F3E504
:101AF00080819181886038E083278083918311C041
:101B000044E050E06BEE71E4802F912F0E94583D2D
:101B1000892B39F0E5E0F3E580819181886080834D
:101B2000918389818935A1F48DB18F778DB90DEAC3
:101B300012E56091055383E090E00E944D34F80176
:101B4000808191818160F1E08F27F801808391830A
:101B50000F90DF91CF911F910F910895CF92DF9257
:101B6000EF92FF920F931F93CF93DF931F92CDB706
:101B7000DEB77C01C62ED72ECE0101969F938F93A0
:101B80000BE013E51F930F9387E093E59F938F93EB
:101B900080EF91E49F938F93FF92EF920E948F3D8D
:101BA000F80183818F9382818F9381818F938081CC
:101BB0008F9384E092E49F938F93DF92CF920E9461
:101BC000663D8981CDBFDEBF8935A1F48DB18F77A8
:101BD0008DB9B7016D5F7F4F44E050E086E490E03F
:101BE0000E94703445E050E06C2D7D2D8BE490E038
:101BF0000E9470340F90DF91CF911F910F91FF9051
:101C0000EF90DF90CF900895CF92DF92EF92FF9206
:101C10000F931F93CF93DF931F92CDB7DEB77C0155
:101C2000C62ED72ECE0101969F938F9303E113E525
:101C30001F930F938FE093E59F938F9389E092E436
:101C40009F938F93FF92EF920E948F3DF8018381C3
:101C50008F9382818F9381818F9380818F9384E092
:101C600092E49F938F93DF92CF920E94663D898189
:101C7000CDBFDEBF8935A1F48DB18F778DB9B701A6
:101C80006D5F7F4F44E050E081E590E00E9470344A
:101C900045E050E06C2D7D2D86E590E00E9470348B
:101CA0000F90DF91CF911F910F91FF90EF90DF90F8
:101CB000CF900895CF92DF92EF92FF920F931F93F0
:101CC000CF93DF931F92CDB7DEB77C01C62ED72E00
:101CD000CE0101969F938F930BE113E51F930F9312
:101CE00087E193E59F938F938DE192E49F938F9388
:101CF000FF92EF920E948F3DF80183818F93828142
:101D00008F9381818F9380818F9384E092E49F935E
:101D10008F93DF92CF920E94663D8981CDBFDEBF57
:101D20008935A1F48DB18F778DB9B7016D5F7F4F84
:101D300044E050E08CE590E00E94703445E050E0D3
:101D40006C2D7D2D81E690E00E9470340F90DF9124
:101D5000CF911F910F91FF90EF90DF90CF9008955A
:101D6000CF92DF92EF92FF920F931F93CF93DF9367
:101D70001F92CDB7DEB77C01C62ED72ECE010196BD
:101D80009F938F9303E213E51F930F938FE193E5E6
:101D90009F938F9381E392E49F938F93FF92EF92AF
:101DA0000E948F3DF80183818F9382818F9381817F
:101DB0008F9380818F9384E092E49F938F93DF923F
:101DC000CF920E94663D8981CDBFDEBF8935A1F4E7
:101DD0008DB18F778DB9B7016D5F7F4F44E050E0D3
:101DE00087E690E00E94703445E050E06C2D7D2D38
:101DF0008CE690E00E9470340F90DF91CF911F919C
:101E00000F91FF90EF90DF90CF9008951092A25421
:101E100089B1806189B92FEF89EF90E0215080402E
:101E20009040E1F700C0000089B18F7E89B98DB183
:101E300080688DB9089581E08093A25489B1806152
:101E400089B92FEF89EF90E0215080409040E1F771
:101E500000C0000089B18F7E89B92FEF89EF90E033
:101E6000215080409040E1F700C0000089B18061BE
:101E700089B92FEF89EF90E0215080409040E1F741
:101E800000C0000089B18F7E89B90895EF92FF925A
:101E90000F931F93CF93DF931F92CDB7DEB77C01D3
:101EA000CE0101969F938F9307E213E51F930F9343
:101EB00085E492E49F938F93FF92EF920E948F3D6F
:101EC000F8012081318142815381A0E1B7E20E9473
:101ED000083D60837183828393838981CDBFDEBF98
:101EE000893549F4B7016D5F7F4F42E050E084E3EC
:101EF00091E00E9470340F90DF91CF911F910F916C
:101F0000FF90EF900895EF92FF920F931F93CF935E
:101F1000DF931F92CDB7DEB77C01CE0101969F9370
:101F20008F930BE213E51F930F938FE492E49F933B
:101F30008F93FF92EF920E948F3DF80120813181B3
:101F400042815381A0E1B7E20E94083D6083718322
:101F5000828393838981CDBFDEBF893549F4B70180
:101F60006D5F7F4F42E050E087E391E00E94703464
:101F70000F90DF91CF911F910F91FF90EF900895F7
:101F8000EF92FF920F931F93CF93DF931F92CDB7E2
:101F9000DEB77C01CE0101969F938F930FE213E58C
:101FA0001F930F9389E592E49F938F93FF92EF9293
:101FB0000E948F3DF8012081318142815381A0E14F
:101FC000B7E20E94083D6083718382839383898195
:101FD000CDBFDEBF893549F4B7016D5F7F4F42E069
:101FE00050E088E191E00E9470340F90DF91CF9132
:101FF0001F910F91FF90EF90089545EA54E560E23C
:1020000070E080E090E00E94EE2245EA54E568E04E
:1020100070E080E090E00E94EE22089545EA54E5E9
:1020200060E270E080E090E00E94022345EA54E51F
:1020300068E070E080E090E00E94EE22089545EABA
:1020400054E560E170E080E090E00E94EE2245EA15
:1020500054E568E070E080E090E00E94EE2285B1F7
:10206000806185B985B1806285B9089545EA54E5F6
:1020700068E070E080E090E00E94EE2245EA54E5DE
:1020800060E170E080E090E00E9402230E94DC2387
:10209000089545EA54E562E070E080E090E00E9437
:1020A000EE22089545EA54E568E070E080E090E0B3
:1020B0000E94EE2208950F931F93CF93DF93EC01BC
:1020C0008B0187E894E59F938F9383E692E49F9337
:1020D0008F93DF93CF930E948F3D67E874E5C8012B
:1020E0000E94513DBE016D5F7F4F49E150E083E2A8
:1020F00090E00E94703461E384E490E00E944D34EB
:102100000F900F900F900F900F900F90DF91CF9145
:102110001F910F9108950F931F93CF93DF931F92F9
:10212000CDB7DEB78C01CE0101969F938F9383E3E9
:1021300093E59F938F938BE692E49F938F931F93E6
:102140000F930E948F3D8981CDBFDEBF893549F451
:10215000B8016D5F7F4F42E050E08AE391E00E945A
:1021600070340F90DF91CF911F910F910895CF930D
:10217000DF93CDB7DEB72A97CDBFDEBF4AE050E090
:102180006FEF70E0CE0101960E943F3D47E050E0C6
:10219000BE016F5F7F4F84E391E00E94703444E0A2
:1021A00050E0BE016F5F7F4F88E191E00E94703484
:1021B0002A96CDBFDEBFDF91CF9108950F931F9375
:1021C000CF93DF931F92CDB7DEB78C01CE0101967E
:1021D0009F938F9385E393E59F938F9385E792E495
:1021E0009F938F931F930F930E948F3D8981CDBF43
:1021F000DEBF893549F4B8016D5F7F4F43E050E0A1
:102200008DE391E00E9470340F90DF91CF911F9188
:102210000F9108950F931F93CF93DF931F92CDB724
:10222000DEB78C01CE0101969F938F9387E393E5F0
:102230009F938F938FE792E49F938F931F930F93B6
:102240000E948F3D8981CDBFDEBF893549F4B80139
:102250006D5F7F4F42E050E080E491E00E94703477
:102260000F90DF91CF911F910F910895CF93DF933E
:102270001F92CDB7DEB79E012F5F3F4F3F932F9345
:1022800029E832E43F932F939F938F930E948F3DD1
:1022900089810F900F900F900F900F900F908935BC
:1022A00041F445EA54E560E070E082E090E00E948D
:1022B00002230F90DF91CF910895CF93DF931F9268
:1022C000CDB7DEB79E012F5F3F4F3F932F932FE88F
:1022D00032E43F932F939F938F930E948F3D898188
:1022E0000F900F900F900F900F900F90893541F441
:1022F00045EA54E560E070E088E090E00E94022347
:102300000F90DF91CF910895CF93DF931F92CDB7B8
:10231000DEB79E012F5F3F4F3F932F9325E932E4B5
:102320003F932F939F938F930E948F3D0F900F9019
:102330000F900F900F900F900F90DF91CF91089515
:102340000F931F93CF93DF931F92CDB7DEB78C010E
:10235000CE0101969F938F9383E493E59F938F9390
:102360008DEA92E49F938F931F930F930E948F3D6A
:102370008981CDBFDEBF893549F4B8016D5F7F4FDC
:1023800044E050E08AEE91E00E9470340F90DF91BB
:10239000CF911F910F91089585B1806285B98DB15C
:1023A0008F778DB9089585B18F7D85B98DB180689E
:1023B0008DB90895EF92FF920F931F93CF93DF9300
:1023C000CDB7DEB76E97CDBFDEBF8C01FE01319673
:1023D0008EE1DF011D928A95E9F7F801808182354F
:1023E00049F481818C3431F48281893519F481B1C9
:1023F000806481B9D8018C91823569F411969C91E1
:1024000011979C3441F412969C919E3421F481B131
:102410008F7B81B986C4833471F4F8019181903542
:1024200051F49281993539F481B1806181B981B1DA
:10243000806281B976C4833489F4D80111969C9165
:102440001197903559F412969C919E3439F481B1CC
:102450008F7E81B981B18F7D81B963C4833459F492
:10246000F8019181913439F49281913321F4C801BA
:102470000E94190756C4833471F4D80111969C91B7
:102480001197913441F412969C91923321F4C80132
:102490000E944E0746C4833459F4F8019181913467
:1024A00039F49281933321F4C8010E94830739C41F
:1024B000833471F4D80111969C911197913441F4B1
:1024C00012969C91943321F4C8010E94B80729C444
:1024D000823559F4F8019181913439F49281913324
:1024E00021F4C8010E94ED071CC4823571F4D801A3
:1024F00011969C911197913441F412969C919233CC
:1025000021F4C8010E9422080CC4843559F4F80152
:102510009181923539F49281913321F4C8010E945E
:102520005708FFC3843571F4D80111969C91119717
:10253000923541F412969C91923321F4C8010E9485
:102540008C08EFC3843559F4F8019181983439F43B
:102550009281913321F4C8010E94C108E2C38435FD
:1025600071F4D80111969C911197983441F4129608
:102570009C91923321F4C8010E94F608D2C384359D
:1025800059F4F8019181983439F49281933321F40C
:10259000C8010E943209C5C3843571F4D80111966F
:1025A0009C911197983441F412969C91943321F4A4
:1025B000C8010E947109B5C3843559F4F8019181AD
:1025C000983439F49281953321F4C8010E94100A9D
:1025D000A8C3843571F4D80111969C911197983451
:1025E00041F412969C91963321F4C8010E94450A49
:1025F00098C3843559F4F8019181983439F4928163
:10260000973321F4C8010E94810A8BC3843571F489
:10261000D80111969C911197983441F412969C918F
:10262000983321F4C8010E94BD0A7BC3843559F454
:10263000F80191819E3439F49281913321F4C801DB
:102640000E94A6096EC3843571F4D80111969C913D
:1026500011979E3441F412969C91923321F4C80153
:102660000E94DB095EC3863471F4F80191819F34C6
:1026700051F49281933439F4BE016F5F7F4FC801EA
:102680000E943E0C4EC3843589F4D80111969C916A
:1026900011979F3459F412969C91923539F4BE01EA
:1026A0006F5F7F4FC8010E949A0C3BC3833571F462
:1026B000F80191819F3451F49281923539F4BE0131
:1026C0006F5F7F4FC8010E94F60C2BC3813489F4E1
:1026D000D80111969C9111979F3459F412969C91B0
:1026E000963439F4BE016F5F7F4FC8010E94520DCE
:1026F00018C3863471F4F80191819C3451F49281AD
:10270000913339F4BE016F5F7F4FC8010E94AE0D57
:1027100008C3863489F4D80111969C9111979C3492
:1027200059F412969C91923339F4BE016F5F7F4F3A
:10273000C8010E94040EF5C2863471F4F80191813B
:102740009C3451F49281933339F4BE016F5F7F4F13
:10275000C8010E945A0EE5C2863489F4D801119648
:102760009C9111979C3459F412969C91943339F4AE
:10277000BE016F5F7F4FC8010E94B00ED2C2833589
:1027800051F4F8019181913431F49281963419F425
:102790000E94060FC6C28F3469F4D80111969C912D
:1027A0001197963539F412969C91923519F40E943E
:1027B0001B0FB7C2833559F4F80191819C3439F469
:1027C0009281943521F4C8010E94460FAAC2833534
:1027D00071F4D80111969C9111979C3441F4129692
:1027E0009C91913521F4C8010E94830F9AC28335D0
:1027F00059F4F80191819C3439F492819A3521F48D
:10280000C8010E94C00F8DC2833569F4D8011196AA
:102810009C9111979C3439F412969C91903519F43F
:102820000E94FD0F7EC2833551F4F80191819C34E2
:1028300031F49281983519F40E940E1072C28434DA
:1028400069F4D80111969C9111979D3439F4129630
:102850009C919F3419F40E941F1063C2843451F478
:10286000F80191819D3431F49281983519F40E94D8
:10287000361057C2863469F4D80111969C9111978D
:102880009C3439F412969C91963519F40E94642375
:1028900048C2843551F4F8019181933431F4928126
:1028A000993519F40E9449103CC2803569F4D80169
:1028B00011969C911197923539F412969C91963409
:1028C00019F40E94F7182DC2823451F4F801918155
:1028D000953431F49281953419F40E94521021C23A
:1028E000823489F4D80111969C9111979C3459F443
:1028F00012969C91953539F4BE016F5F7F4FC801E8
:102900000E945B100EC28F3441F4F80191819B3418
:1029100021F49281933709F404C28D3499F4D801DB
:1029200011969C911197953469F412969C91993562
:1029300049F481E08093F55369E381E090E00E94DF
:102940004D34EFC18E3479F4F80191819F3459F4FC
:1029500092819D3441F41092F55363E581E090E05B
:102960000E944D34DEC18F3459F4D80111969C91E8
:102970001197963429F412969C91963409F4D1C19A
:10298000833559F4F8019181993439F49281943561
:1029900021F4C8010E948B10C4C1853469F4D801A8
:1029A00011969C911197923539F412969C9191341D
:1029B00019F40E94B710B5C18C3459F4F801918113
:1029C000943439F49281913421F4C8010E94DE10CC
:1029D000A8C18C3471F4D80111969C91119794344C
:1029E00041F412969C91923421F4C8010E940A117C
:1029F00098C1833469F4F80191819C3449F492813F
:102A0000913331F4B8018DEA92E50E94A30189C1A6
:102A1000833479F4D80111969C9111979C3449F430
:102A200012969C91923329F48DEA92E50E942E022F
:102A300078C1833461F4F80191819C3441F492812E
:102A4000933329F48DEA92E50E945A036AC18334D4
:102A500079F4D80111969C9111979C3449F41296FF
:102A60009C91943329F48DEA92E50E94C40259C1E5
:102A7000833461F4F80191819C3441F4928195335F
:102A800029F48DEA92E50E94F0034BC1833479F476
:102A9000D80111969C9111979C3449F412969C91FF
:102AA000963329F48DEA92E50E943A063AC18334BE
:102AB00061F4F80191819C3441F49281973329F4B7
:102AC0008DEA92E50E945A032CC1853471F4D80135
:102AD00011969C911197933441F412969C919133E5
:102AE00021F4C8010E9436111CC1853459F4F80143
:102AF0009181933439F49281923321F4C8010E9478
:102B00005D110FC1853471F4D80111969C91119714
:102B1000933441F412969C91933321F4C8010E949E
:102B20008411FFC0853459F4F8019181933439F44C
:102B30009281943321F4C8010E943611F2C0853489
:102B400071F4D80111969C911197933441F4129627
:102B50009C91953321F4C8010E945D11E2C0853437
:102B600059F4F8019181933439F49281963321F428
:102B7000C8010E948411D5C08F3459F4D801119630
:102B80009C911197963529F412969C91923409F4F0
:102B9000C8C08C3459F4F80191819C3439F4928185
:102BA000993521F4C8010E94CC11BBC08C3471F45A
:102BB000D80111969C9111979C3441F412969C91E6
:102BC0009E3421F4C8010E94D311ABC0823559F460
:102BD000F8019181993539F49281993521F485B3C1
:102BE0008F7E85BB9EC0823571F4D80111969C9171
:102BF0001197993541F412969C919E3421F485B336
:102C0000806185BB8EC0883459F4F8019181933579
:102C100039F49281933321F4C8010E945C0B81C086
:102C2000883471F4D80111969C911197933541F431
:102C300012969C91943321F4C8010E94910B71C0AB
:102C4000883459F4F8019181933539F492819533A0
:102C500021F4C8010E94CD0B64C0883489F4D801E6
:102C600011969C911197933559F412969C91963335
:102C700039F4BE016F5F7F4FC8010E94090C51C03B
:102C8000883459F4F8019181933539F49281913364
:102C900021F4C8010E94F20A44C0883471F4D801BA
:102CA00011969C911197933541F412969C91923311
:102CB00021F4C8010E94270B34C0833439F4F80191
:102CC0009181913419F49281953359F18C3471F4D6
:102CD000D80111969C911197983541F412969C91C8
:102CE000923421F4C8010E94A0111BC0843559F40C
:102CF000F8019181923539F49281993521F481E07E
:102D00008093FB530EC0843561F4D80111968C91E9
:102D10001197823531F412968C918E3411F4109201
:102D2000FB53F80183810E942D320F2EF2E5EF2E26
:102D3000F8E4FF2EF02DD70112968C93F8018281D2
:102D40000E942D32D70111968C93F80181810E9447
:102D50002D32D7018C930E94B5346E96CDBFDEBF65
:102D6000DF91CF911F910F91FF90EF9008950F93F6
:102D70001F93CF93DF93CDB7DEB76E97CDBFDEBF86
:102D8000FE0131968EE1DF011D928A95E9F700E0A0
:102D900010E00FC00E94C134E1E0F0E0EC0FFD1F35
:102DA000E00FF11F80838D3039F08A3029F00F5FFA
:102DB0001F4F0E31110574F3CE0101960E94DA11F6
:102DC0006E96CDBFDEBFDF91CF911F910F91089519
:102DD0000F931F93CF93DF93CDB7DEB7A897CDBFE7
:102DE000DEBF85B1806185B98E010F5F1F4F88E21C
:102DF000F80111928A95E9F787E894E59F938F93FC
:102E000086EB92E49F938F931F930F930E94663DEE
:102E1000A895FFEF27E883E1F15020408040E1F7DB
:102E200000C00000A8959FEFE7E8F3E19150E04073
:102E3000F040E1F700C00000A8952FEF87E893E18C
:102E4000215080409040E1F700C00000A895C801E3
:102E50000E942D1A60E384E490E00E944D34EFEF6D
:102E6000F7E823E1E150F0402040E1F700C0000026
:102E7000A8958FEF97E8E3E181509040E040E1F7BB
:102E800000C00000A895FFEF27E883E1F150204043
:102E90008040E1F700C00000A8950E94B7160F908F
:102EA0000F900F900F900F900F90A896CDBFDEBFA0
:102EB000DF91CF911F910F910895662341F0BC01DE
:102EC00089ED97E40E94513D1092D84711C080913E
:102ED000D8478F5F8093D847882341F045EA54E56F
:102EE00060E070E082E090E00E9402231092D847F8
:102EF00089ED97E40E942D1A0895662349F0BC01DC
:102F00008AEB97E40E94513D81E08093B94711C05C
:102F10008091B9478F5F8093B947833050F045EA7D
:102F200054E560E070E088E090E00E940223109297
:102F3000B9478AEB97E40E942D1A0895662349F059
:102F4000BC018DE896E40E94513D81E080938C465F
:102F500011C080918C468F5F80938C46833050F0F7
:102F600045EA54E560E070E080E190E00E940223D1
:102F700010928C468DE896E40E942D1A08956623DF
:102F800049F0BC018AE596E40E94513D81E08093BE
:102F9000594611C0809159468F5F809359468330BE
:102FA00050F045EA54E561E070E080E090E00E9476
:102FB0000223109259468AE596E40E942D1A08953C
:102FC000EF92FF920F931F93CF93DF93CDB7DEB7AE
:102FD000C45AD140CDBFDEBFEDEAF2E5148A158AAE
:102FE000168A178A108E118E128E138E148E158EDD
:102FF000168E178E14A615A616A617A610AA11AA25
:1030000012AA13AA14AA15AA16AA17AA8E010F5F4C
:103010001F4F88E691E0D8019C011D92215030405D
:10302000E1F7A3E3B3E511968C9111978F938C91FF
:103030008F93A7E3B3E511968C9111978F938C91A1
:103040008F93A5E3B3E511968C9111978F938C9193
:103050008F9381858F9380858F9383A58F9382A58E
:103060008F9381A58F9380A58F9383898F93828976
:103070008F9381898F9380898F9387858F9386859E
:103080008F9385858F9384858F9387818F93868196
:103090008F9383858F9382858F9385818F9384818E
:1030A0008F9387AD8F9386AD8F9385AD8F9384ADCE
:1030B0008F9383AD8F9382AD8F9387A18F9386A1DA
:1030C0008F9385A18F9384A18F9383A18F9382A1E6
:1030D0008F9381AD8F9380AD8F931F921F921F921C
:1030E0001F921F921F921F921F921F921F921F9258
:1030F0001F9281A18F9380A18F931F921F921F9285
:103100001F921F921F921F921F921F921F921F9237
:103110001F9280EC92E49F938F931F930F930E94D2
:10312000663DCDBFDEBFE3E4F3E581818F9380810F
:103130008F93EDEFF2E581818F9380818F93EFEE96
:10314000F2E581818F9380818F93EDEEF2E58181AD
:103150008F9380818F938DE193E49F938F937E0172
:1031600097E9E91A9EEFF90AFF92EF920E94663DF5
:10317000B701C8010E94463D45EA54E560E070E0B1
:1031800080E190E00E94EE2261E0C8010E949E175B
:10319000CDBFDEBF81E0CC55DE4FCDBFDEBFDF91BE
:1031A000CF911F910F91FF90EF900895662349F002
:1031B000BC018DE196E40E94513D81E080931C4664
:1031C00011C080911C468F5F80931C46833050F065
:1031D00045EA54E564E070E080E090E00E9402235C
:1031E00010921C468DE196E40E942D1A08950F93CB
:1031F0001F93CF93DF93CDB7DEB7EC97CDBFDEBF84
:103200008E010F5F1F4F8CE3F80111928A95E9F749
:103210008FE293E49F938F9387E894E59F938F9336
:10322000EFE2F3E583818F9382818F9381818F9386
:1032300080818F93E5E0F3E581818F9380818F9387
:1032400089E393E49F938F931F930F930E94663DAE
:1032500045EA54E564E070E080E090E00E94EE22F0
:1032600061E0C8010E94D618CDBFDEBFEC96CDBF8D
:10327000DEBFDF91CF911F910F9108958091A554EA
:103280009091A654A091A754B091A854A1FF18C042
:1032900060E083E693E40E945D178091A5549091CD
:1032A000A654A091A754B091A85422E0A2278093DD
:1032B000A5549093A654A093A754B093A8540895EE
:1032C000A3FF06C060E083E693E40E947D170895A3
:1032D000A4FF06C060E083E693E40E949E17089571
:1032E00080FF06C060E083E693E40E94BF17089564
:1032F00081FF14C00E94E0178091A5549091A654BC
:10330000A091A754B091A85422E082278093A5549D
:103310009093A654A093A754B093A8548091A55419
:1033200082FF05C060E083E693E40E94D61808950A
:1033300085B1806285B985B1806185B981E090E011
:1033400008958F929F92AF92BF92CF92DF92EF92A9
:10335000FF92BC01660F771F880F991F880F991F76
:10336000880F991F680F791F072E000C880B990B87
:103370000E94D83A0E94ED3B6B017C0120915D4890
:1033800030915E4840915F48509160480E94353CC2
:103390002091F7533091F8534091F9535091FA53DB
:1033A0000E94BD394B015C01A7019601C701B6011E
:1033B0000E94353C9B01AC01C701B6010E94353C1F
:1033C00020917654309177544091785450917954AB
:1033D0000E94353C9B01AC01C501B4010E94BD397E
:1033E0009B01AC0160E070E080E89FE30E942E3A10
:1033F00023E333E948E853E40E94BC3920910553A4
:1034000020FF12C020E030E040E151E40E94353C52
:1034100020E030E040EA50E40E942E3A20E030E024
:1034200040E052E40E94BD3920E030E040E251E447
:103430000E94353C0E94A03ACB01FF90EF90DF90B4
:10344000CF90BF90AF909F908F9008959091040877
:1034500095FFFCCF8093020808950F931F93CF939D
:10346000DF938C01C0E0D0E007C0F801EC0FFD1F36
:1034700080810E94261A2196F80101900020E9F728
:103480003197E01BF10BCE17DF0778F381E0DF9176
:10349000CF911F910F9108950F931F93CF93DF93B7
:1034A0008C0181B3846081BBC0E0D0E007C0F8012B
:1034B000EC0FFD1F80810E94F5342196F8010190E8
:1034C0000020E9F73197E01BF10BCE17DF0778F307
:1034D00081E0DF91CF911F910F91089580E090E0FE
:1034E000DC0109C00196A11DB11D81382CE09207B5
:1034F000A105B10538F42091240822239CF780917E
:10350000200808958FEF0895E0E2F8E086818F7734
:10351000868308958F929F92AF92BF92CF92DF924F
:10352000EF92FF920F931F93DA012C912065A0E593
:10353000A2272091055321FF0AC0673EB3E07B0715
:103540008105910520F4FA01A08380E047C2E09153
:103550003353F091345302E410E00E1B1F0B012E85
:10356000000C220B330B061717072807390768F4DE
:103570008F010E5B1F4F012E000C220B330B6017C7
:1035800071078207930708F414C104E610E00E1BCC
:103590001F0B012E000C220B330B061717072807F1
:1035A000390768F48F010C591F4F012E000C220BB4
:1035B000330B601771078207930708F4FFC008EC0C
:1035C00010E00E1B1F0B012E000C220B330B0617F5
:1035D00017072807390768F48F0108531F4F012E7A
:1035E000000C220B330B601771078207930708F456
:1035F000EAC000E011E00E1B1F0B012E000C220B95
:10360000330B061717072807390760F48F01139546
:10361000012E000C220B330B6017710782079307F2
:1036200008F4D6C009E511E00E1B1F0B000F111F97
:10363000012E000C220B330B06171707280739073A
:1036400078F48F01075A1E4F000F111F012E000C36
:10365000220B330B601771078207930708F4BDC074
:1036600009EA11E00E1B1F0B000F111F012E000CA9
:10367000220B330B061717072807390778F48F0139
:1036800007551E4F000F111F012E000C220B330B8C
:10369000601771078207930708F4A4C000910B53C9
:1036A00010910C5320910D5330910E536F01FF0F69
:1036B000EE08FF08480159018C189D08AE08BF08A4
:1036C00086169706A806B90660F4480159018C0CC5
:1036D0009D1CAE1CBF1C681579058A059B0508F466
:1036E0008EC00091135310911453209115533091B3
:1036F0001653480159018C189D08AE08BF0886165C
:103700009706A806B90660F446015701800E911E7F
:10371000A21EB31E681579058A059B0508F46FC0C3
:1037200000911B5310911C5320911D5330911E5337
:10373000480159018C189D08AE08BF0886169706E7
:10374000A806B90660F446015701800E911EA21E1C
:10375000B31E681579058A059B0508F450C00091D1
:10376000235310912453209125533091265348011F
:1037700059018C189D08AE08BF0886169706A80642
:10378000B90648F4C00ED11EE21EF31E6C157D056D
:103790008E059F05A0F1623071058105910538F114
:1037A000673EF3E07F078105910529F18B019C01BC
:1037B00026C002E410E020E030E021C004E610E082
:1037C00020E030E01CC008EC10E020E030E017C042
:1037D00000E011E020E030E012C002EB12E020E057
:1037E00030E00DC002E513E020E030E008C000E06A
:1037F00010E0980104C008EE13E020E030E00093F0
:103800008F4810939048083C11052105310509F4B3
:1038100040C088F4023411052105310539F1043620
:1038200011052105310559F1011511052105310554
:1038300009F069C062C0023B82E01807210531052A
:10384000E1F138F40115E1E01E072105310559F1D8
:103850005AC00235F3E01F0721053105C1F1083ECA
:1038600083E0180721053105E1F14DC0EEE5F4E5EF
:1038700086E3828381838EE5808381E0AFC0EEE5BD
:10388000F4E580E3828381E381838CE5808381E0BA
:10389000A5C0EEE5F4E580E3828382E381838BE5D6
:1038A000808381E09BC0EEE5F4E585E3828383E3DA
:1038B00081838DE5808381E091C0EEE5F4E589E3C5
:1038C000828386E381838CE5808381E087C0EEE597
:1038D000F4E585E3828388E381838DE5808381E05D
:1038E0007DC0EEE5F4E52A2F2061DA012C938DE20C
:1038F00082838183808381E071C02A2F2061FA0155
:10390000208380E06BC0FA01A08380910B539091DB
:103910000C53A0910D53B0910E53081719072A07A5
:103920003B0769F480910953EEE5F4E582838091C9
:103930000853818380910753808381E04FC0809139
:10394000135390911453A0911553B0911653081727
:1039500019072A073B0769F480911153EEE5F4E556
:10396000828380911053818380910F53808381E003
:1039700035C080911B5390911C53A0911D53B09161
:103980001E53081719072A073B0769F4809119533A
:10399000EEE5F4E58283809118538183809117537B
:1039A000808381E01BC08091235390912453A09188
:1039B0002553B0912653081719072A073B0769F4C6
:1039C00080912153EEE5F4E5828380912053818339
:1039D00080911F53808381E001C080E01F910F918F
:1039E000FF90EF90DF90CF90BF90AF909F908F901F
:1039F00008952F923F924F925F926F927F928F9293
:103A00009F92AF92BF92CF92DF92EF92FF920F936D
:103A10001F93CF93DF93CDB7DEB7C454D109CDBF89
:103A2000DEBF1A012BAF3CAFFE01319682E3DF010E
:103A30001D928A95E9F7E1E6F3E512821182108280
:103A4000FA0110821182DB011D921D921D921C92BF
:103A50001397A89581B18F7D81B981B1806181B9BA
:103A600085B1806185B910924A48809159539091EF
:103A70005A538D3D95405CF081E593E40E942D1AE8
:103A80008FEF90E0F1018083918380E0EEC285B3F7
:103A9000806285BB85B38F7E85BB88E00E94C23281
:103AA00088E00E94C23288E00E94C2326091B15226
:103AB0007091B252072E000C880B990B0E94D83AD5
:103AC00020E030E04AE754E40E942E3A6B017C018A
:103AD00088E00E94C2329695879596958795BC019D
:103AE00080E090E00E94D63AA70196010E94353C02
:103AF0000E94A03A6BAB7CAB8DAB9EABEBA8FCA855
:103B0000F2E3EF16F10434F484E693E40E942D1AF4
:103B100080E0ABC289E00E94C232D8016D917C91F5
:103B2000072E000C880B990B0E94D83A20E030E059
:103B30004AE754E40E942E3A4B015C0189E00E945E
:103B4000C2329695879596958795BC0180E090E066
:103B50000E94D63AA50194010E94353C0E94A03AE9
:103B6000C62ED72E072E000C880B990B0E94D83A30
:103B70004B015C016091355370913653072E000C58
:103B8000880B990B0E94D83A9B01AC01C501B40186
:103B90000E94353C6FAB78AF89AF9AAF60913753D5
:103BA00070913853072E000C880B990B0E94D83A5D
:103BB00020E030E048EC52E40E94353C2B013C010F
:103BC0009B01AC016FA978AD89AD9AAD0E94BC395B
:103BD00020E030E048EC52E40E942E3A0E94133B71
:103BE0000E94A03A6FAF21967FAF2197862F972F23
:103BF0005C01A30192016FA978AD89AD9AAD0E94D5
:103C0000BD3920E030E048EC52E40E942E3A0E9498
:103C1000133B0E94A03A662E772E862F972DAE1466
:103C2000BF041CF4E816F9062CF08091A2548823F6
:103C300009F4B9C1BFE7E8E3F1E0B150E040F0407A
:103C4000E1F700C0000085B3806185BB2FEF80E7FE
:103C500092E0215080409040E1F700C0000089E0F0
:103C60000E94C232D8016D917C91072E000C880B06
:103C7000990B0E94D83A20E030E04AE754E40E94D1
:103C80002E3A4B015C0189E00E94C23296958795DD
:103C900096958795BC0180E090E00E94D63AA501F8
:103CA00094010E94353C0E94A03A462E572E9B015B
:103CB000245631092E153F052CF46C597F4FE6161A
:103CC000F7062CF08091A254882309F476C1A895B8
:103CD00085B38F7D85BBE7EBFBE03197F1F700C043
:103CE0000000D8016D917C91072E000C880B990B78
:103CF0000E94D83A20E030E04AE754E40E942E3A8D
:103D00004B015C0189E00E94C23296958795969599
:103D10008795BC0180E090E00E94D63AA50194010D
:103D20000E94353C0E94A03A4B01643671052CF08C
:103D30008091A254882309F448C1EBADFCAD6081A9
:103D40007181072E000C880B990B0E94D83A20E055
:103D500030E04AE754E40E942E3A6B017C0188E08F
:103D60000E94C2329695879596958795BC0180E012
:103D700090E00E94D63AA70196010E94353C0E942D
:103D8000A03A25966CAF7DAF8EAF9FAF259785B3D8
:103D9000806285BBFFEF24E38CE0F150204080403F
:103DA000E1F700C00000A89585B38F7D85BB9FEF2C
:103DB000A0E7B2E09150A040B040E1F700C00000A1
:103DC000EBADFCAD60817181072E000C880B990B67
:103DD0000E94D83A20E030E04AE754E40E942E3AAC
:103DE0006B017C0188E00E94C2329695879596957A
:103DF0008795BC0180E090E00E94D63AA701960129
:103E00000E94353C0E94A03A6FAB78AF89AF9AAF61
:103E1000BFA8A8AC85B3806285BBFFE72AE186E036
:103E2000F15020408040E1F700C00000A895D80183
:103E30006D917C91072E000C880B990B0E94D83A4B
:103E400020E030E04AE754E40E942E3A6B017C0106
:103E500089E00E94C2329695879596958795BC0118
:103E600080E090E00E94D63AA70196010E94353C7E
:103E70000E94A03A462E572EEBADFCAD60817181B9
:103E8000072E000C880B990B0E94D83A20E030E0F6
:103E90004AE754E40E942E3A6B017C0188E00E94BC
:103EA000C2329695879596958795BC0180E090E003
:103EB0000E94D63AA70196010E94353C0E94A03A82
:103EC0006BAF7CAF8DAF9EAF85B38F7E85BB89B165
:103ED000806189B98FE493EC0197F1F700C000008D
:103EE00089B18F7E89B9D8016D917C91072E000C24
:103EF000880B990B0E94D83A20E030E04AE754E45E
:103F00000E942E3A6B017C0189E00E94C232969594
:103F1000879596958795BC0180E090E00E94D63AFF
:103F2000A70196010E94353C0E94A03AC62ED72ECA
:103F300020914E4830914F488AE1829FF001839F43
:103F4000F00D1124EF59F74B8BA99CA98083918325
:103F5000ABADBCADA283B38323968EAD9FAD23974B
:103F600084839583AFA9B8ADA683B7834BA95CA919
:103F70004A1B5B0BCA01992324F488279927841BC9
:103F8000950B80934F53909350534AE1429FF00119
:103F9000439FF00D1124EF59F74B8087918791E0F3
:103FA00021E081E017C090E020E080E0812C912C9E
:103FB000412C512CB12CA12C0DC090E021E080E0CF
:103FC000812C912CB12CA12C05C091E021E080E046
:103FD000B12CA12C882311F081E001C088E02223BC
:103FE00011F0826001C08061992319F08460F82E7D
:103FF00002C08062F82E0F2D10E0E7E4F3E5818522
:104000008F9380858F939F928F925F924F92DF92D2
:10401000CF92AF92BF927F926F922196FFAD219780
:10402000FF932FAD2F938CA98F939BA99F931F92E2
:10403000FF928FE793E49F938F93DE0111966D01BA
:10404000BF93AF930E94663DC6010E942D1AF101F5
:104050000083118381B18F7E81B9CDBFDEBF97E030
:10406000F91202C081E001C080E0CC5BDF4FCDBF20
:10407000DEBFDF91CF911F910F91FF90EF90DF9006
:10408000CF90BF90AF909F908F907F906F905F90F8
:104090004F903F902F9008952F923F924F925F92B2
:1040A0006F927F928F929F92AF92BF92CF92DF9248
:1040B000EF92FF920F931F93CF93DF93CDB7DEB7AD
:1040C000C558D109CDBFDEBFCD57DF4F8883C35858
:1040D000D040792ECC57DF4F6883C458D040CB579F
:1040E000DF4F7883C558D040622E3A2C2B2CFE012E
:1040F000319684E6DF011D928A95E9F780914D485B
:10410000833059F48FE0E0EBF3E4DE01AB59BF4FAD
:1041100001900D928A95E1F70AC08EE0EFEBF3E48F
:10412000DE01AB59BF4F01900D928A95E1F7609186
:104130002F537091305380913153909132530F2E01
:10414000F0E18F2EF7E29F2EA12CB12CF02DA501CE
:1041500094010E94DD3C422E60912B5370912C53B0
:1041600080912D5390912E53A50194010E94DD3C26
:10417000522E60912753709128538091295390912A
:104180002A53A50194010E94DD3C60915553709122
:1041900056538091575390915853DF92CF922F925C
:1041A0003F920F2EF1E6CF2EF8E4DF2EF02DF60130
:1041B000338D3F93328D3F931F930F93FF92EF9276
:1041C0001F924F921F925F921F922F930E94A03ACC
:1041D0007F936F93CE018B599F4F9F938F938DEC5D
:1041E00093E49F938F93CE0101969F938F930E94A8
:1041F000663DD60194968D919C919597CDBFDEBF7B
:10420000883BFBE09F0784F59F938F938CEE93E4AC
:104210009F938F93CE018B599F4F9F938F930E94B3
:10422000663D80918548909186480F900F900F9041
:104230000F900F900F90873B9B4071F4DE01119619
:104240000D900020E9F7119786E0E0EFF3E401908C
:104250000D928A95E1F715C0BE016B597F4FCE01D3
:1042600001960E94463D0DC0DE0111960D90002082
:10427000E9F7119786E0E6EFF3E401900D928A9555
:10428000E1F78091055381FF08C080918F4890919C
:104290009048873E934009F020C180918F489091CB
:1042A00090488115A1E09A0709F455C07CF4823446
:1042B000910509F124F4892B09F48DC0ACC0843632
:1042C000910549F1883C9105B1F1A5C08235E3E043
:1042D0009E0709F460C02CF4823B924009F44BC065
:1042E0009AC0873E33E0930709F465C0883E934047
:1042F00009F481C090C0DE0111960D900020E9F70D
:10430000119785E0ECEFF3E401900D928A95E1F7C7
:1043100008E010E082C0DE0111960D900020E9F760
:10432000119785E0E1E0F4E401900D928A95E1F7C0
:1043300008E010E072C0DE0111960D900020E9F750
:10434000119785E0E6E0F4E401900D928A95E1F79B
:1043500008E010E062C0DE0111960D900020E9F740
:10436000119785E0EBE0F4E401900D928A95E1F776
:1043700008E010E052C0DE0111960D900020E9F730
:10438000119785E0E0E1F4E401900D928A95E1F760
:1043900008E010E042C0DE0111960D900020E9F720
:1043A000119785E0E5E1F4E401900D928A95E1F73B
:1043B00008E010E032C0DE0111960D900020E9F710
:1043C000119785E0EAE1F4E401900D928A95E1F716
:1043D00004E010E022C0DE0111960D900020E9F704
:1043E000119785E0EFE1F4E401900D928A95E1F7F1
:1043F00004E010E012C0DE0111960D900020E9F7F4
:10440000119785E0E4E2F4E401900D928A95E1F7DA
:1044100004E010E002C000E010E040910B53509126
:104420000C5360910D5370910E5380918F48909171
:104430009048092E000CAA0BBB0B481759076A07B6
:104440007B0749F467E073E5CE0101960E94463D83
:1044500008E010E044C04091135350911453609110
:1044600015537091165384179507A607B70749F49B
:104470006FE073E5CE0101960E94463D08E010E032
:104480002EC040911B5350911C5360911D5370914D
:104490001E5384179507A607B70749F467E173E52C
:1044A000CE0101960E94463D08E010E018C0409100
:1044B00023535091245360912553709126538417B0
:1044C0009507A607B70759F46FE173E5CE0101968A
:1044D0000E94463D08E010E002C000E010E0083015
:1044E000110501F104301105E9F0E1E6F8E487A5D2
:1044F0008F9386A58F9384E190E49F938F937E01A1
:10450000B5E6EB0EF11CFF92EF920E94663DB701FB
:10451000CE0101960E94463D0F900F900F900F9094
:104520000F900F906110006180914D481F928F9302
:104530008091FD538F938091FC538F93E7E4F3E5D3
:10454000818D8F93808D8F93E5E0F3E581818F934B
:1045500080818F937F92CD57DF4FE881C358D04041
:10456000EF931F930F93CB57DF4FF881C558D0407F
:10457000FF93CC57DF4F2881C458D0402F9389E256
:1045800094E49F938F938E010B591F4F1F930F93AA
:104590000E94663DB801CE0101960E94463D61E051
:1045A000CE0101960E945D17CDBFDEBF81E0CB57E3
:1045B000DF4FCDBFDEBFDF91CF911F910F91FF90F5
:1045C000EF90DF90CF90BF90AF909F908F907F90B3
:1045D0006F905F904F903F902F9008950F931F938F
:1045E000FA010081118122813381DC01CB01802B12
:1045F000912BA22BB32B80839183A283B3831F9132
:104600000F9108950F931F93FA0100811181228168
:104610003381062B172B282B392BDC01CB0180276C
:104620009127A227B32780839183A283B3831F910D
:104630000F9108958F929F92AF92BF92FF920F9326
:104640001F93CF93DF93EC018B01F42E85B1806132
:1046500085B98BE00E94C232B801110F880B990B0B
:104660000E94D83A20E030E04AE754E40E942E3A13
:104670004B015C018BE00E94C2329695879596951E
:104680008795BC0180E090E00E94D63AA501940194
:104690000E94353C0E94A03A9B01FF2019F045B1D1
:1046A0004F7E45B92C3D31401CF021E0288301C0EC
:1046B0001882CB01DF91CF911F910F91FF90BF9096
:1046C000AF909F908F9008950F931F93CF93DF9398
:1046D000CDB7DEB7EC97CDBFDEBF8E010F5F1F4FAA
:1046E0008CE3F80111928A95E9F7E3E2F3E583811F
:1046F0008F9382818F9381818F9380818F938FE1BC
:1047000093E59F938F93EBE1F3E583818F93828110
:104710008F9381818F9380818F9387E193E59F931E
:104720008F93E3E1F3E583818F9382818F9381817E
:104730008F9380818F938FE093E59F938F93EBE02E
:10474000F3E583818F9382818F9381818F93808121
:104750008F9387E093E59F938F9384E494E49F93F2
:104760008F931F930F930E94663D45EA54E561E0E5
:1047700070E080E090E00E94EE2261E0C8010E94BB
:10478000BF17CDBFDEBFEC96CDBFDEBFDF91CF91AF
:104790001F910F91089583E00E94C23283E00E942E
:1047A000C23296958795969587959695879580932D
:1047B000FC539093FD530895CF92DF92EF92FF92B6
:1047C0000F931F93CF93DF93CDB7DEB76E97CDBF17
:1047D000DEBF8E010F5F1F4F8EE1F80111928A95A7
:1047E000E9F742E050E0B80184E391E00E946934C7
:1047F0000F2EF7E2CF2EF3E5DF2EF02DDF92CF92D2
:104800000F2EF3E7EF2EF4E4FF2EF02DFF92EF9240
:104810001F930F930E948F3DF601208131814281C9
:104820005381A0E1B7E20E94083D608371838283D7
:10483000938342E050E0B80187E391E00E9469343D
:104840000F2EFBE2CF2EF3E5DF2EF02DDF92CF927D
:10485000FF92EF921F930F930E948F3DF6012081EC
:10486000318142815381A0E1B7E20E94083D60831B
:1048700071838283938342E050E0B80188E191E044
:104880000E9469340F2EFFE2CF2EF3E5DF2EF02DCC
:10489000DF92CF92FF92EF921F930F930E948F3D72
:1048A000F6012081318142815381A0E1B7E20E946B
:1048B000083D6083718382839383CDBFDEBF6E9694
:1048C000CDBFDEBFDF91CF911F910F91FF90EF9091
:1048D000DF90CF900895AF92BF92CF92DF92EF9288
:1048E000FF920F931F93CF93DF93CDB7DEB76E97F1
:1048F000CDBFDEBF8E010F5F1F4F8EE1F801119219
:104900008A95E9F781E090E00E94493444E050E064
:10491000B8018AE090E00E94693481EB92E59F93B0
:104920008F930F2EF8E7EF2EF4E4FF2EF02DFF9279
:10493000EF921F930F930E948F3D44E050E0B80127
:1049400084E190E00E94693487EB92E59F938F9316
:10495000FF92EF921F930F930E948F3D44E050E02F
:10496000B8018FE090E00E94693483EB92E59F9359
:104970008F93FF92EF921F930F930E948F3D44E01D
:1049800050E0B80189E190E00E94693489EB92E53A
:104990009F938F93FF92EF921F930F930E948F3DEF
:1049A00044E050E0B8018EE190E00E9469348BEB66
:1049B00092E59F938F93FF92EF921F930F930E9424
:1049C0008F3D83E090E00E94493490E0809305534E
:1049D0009093065348E150E0B80183E290E00E94D2
:1049E000693487E894E59F938F9386E692E49F93DA
:1049F0008F931F930F930E948F3DCDBFDEBF41E089
:104A000050E0B80184E490E00E94693483EA94E5C0
:104A10009F938F938CE794E49F938F931F930F93AF
:104A20000E948F3D44E050E0B80186E490E00E948F
:104A3000693487E093E59F938F930F2EF0E8AF2EB4
:104A4000F4E4BF2EF02DBF92AF921F930F930E94FC
:104A50008F3D46E050E0B8018BE490E00E9469345D
:104A60008BE093E59F938F930F2EF4E0CF2EF2E42B
:104A7000DF2EF02DDF92CF921F930F930E948F3D78
:104A800044E050E0B80181E590E00E9469348FE095
:104A900093E59F938F93BF92AF921F930F930E94C2
:104AA0008F3D46E050E0B80186E590E00E94693411
:104AB00083E193E59F938F93DF92CF921F930F93A0
:104AC0000E948F3D44E050E0B8018CE590E00E94E8
:104AD000693487E193E59F938F93BF92AF921F93C1
:104AE0000F930E948F3DCDBFDEBF46E050E0B8017E
:104AF00081E690E00E9469348BE193E59F938F9368
:104B0000DF92CF921F930F930E948F3D44E050E0BD
:104B1000B80187E690E00E9469348FE193E59F93A6
:104B20008F93BF92AF921F930F930E948F3D46E0E9
:104B300050E0B8018CE690E00E94693483E293E58E
:104B40009F938F93DF92CF921F930F930E948F3D7D
:104B500044E050E0B80182E790E00E9469348DECB7
:104B600092E59F938F930F2EF4E1CF2EF0E4DF2E8A
:104B7000F02DDF92CF921F930F930E948F3D44E060
:104B800050E0B8018CE790E00E94693485EE92E530
:104B90009F938F93DF92CF921F930F930E948F3D2D
:104BA00044E150E0B80186E890E00E94693489ED64
:104BB00092E59F938F930F2EF4E8AF2EF4E4BF2E6F
:104BC000F02DBF92AF921F930F930E948F3DCDBFE8
:104BD000DEBF44E150E0B8018AE990E00E94693408
:104BE0008DED92E59F938F93BF92AF921F930F939A
:104BF0000E948F3D44E150E0B8018EEA90E00E94AF
:104C0000693481EE92E59F938F93BF92AF921F9389
:104C10000F930E948F3D44E150E0B80182EC90E098
:104C20000E94693481EC92E59F938F93BF92AF927B
:104C30001F930F930E948F3D44E150E0B80186ED31
:104C400090E00E94693485EC92E59F938F93BF9228
:104C5000AF921F930F930E948F3D44E150E0B80143
:104C60008AEE90E00E94693489EC92E59F938F93DD
:104C7000BF92AF921F930F930E948F3D44E050E08C
:104C8000B8018AE091E00E9469348FEC92E59F932D
:104C90008F93DF92CF921F930F930E948F3DCDBFD2
:104CA000DEBF44E050E0B8018EE091E00E9469343C
:104CB00081ED92E59F938F93DF92CF921F930F9395
:104CC0000E948F3D44E050E0B80182E191E00E94F3
:104CD000693483ED92E59F938F93DF92CF921F9378
:104CE0000F930E948F3D44E050E0B8018EEF90E0BA
:104CF0000E94693487EE92E59F938F93DF92CF9263
:104D00001F930F930E948F3D44E050E0B80182E072
:104D100091E00E94693489EE92E59F938F93DF9230
:104D2000CF921F930F930E948F3D44E050E0B80153
:104D300086E091E00E9469348BEE92E59F938F9319
:104D4000DF92CF921F930F930E948F3D44E050E07B
:104D5000B8018DE191E00E9469348DEB92E59F935B
:104D60008F93FF92EF921F930F930E948F3DCDBFC1
:104D7000DEBF44E050E0B80181E291E00E94693476
:104D80008FEB92E59F938F93FF92EF921F930F9378
:104D90000E948F3D44E050E0B80185E291E00E941E
:104DA000693485ED92E59F938F93FF92EF921F9365
:104DB0000F930E948F3D44E050E0B80189E291E0FA
:104DC0000E94693487ED92E59F938F93FF92EF9253
:104DD0001F930F930E948F3D44E050E0B80181E3A0
:104DE00091E00E94693485EB92E59F938F93FF9247
:104DF000EF921F930F930E948F3D42E050E0B80165
:104E00008AE391E00E94693483E393E59F938F9353
:104E10000F2EF8E8AF2EF4E4BF2EF02DBF92AF9224
:104E20001F930F930E948F3D43E050E0B8018DE344
:104E300091E00E94693485E393E59F938F938CE81A
:104E400094E49F938F931F930F930E948F3DCDBF48
:104E5000DEBF42E050E0B80180E491E00E94693496
:104E600087E393E59F938F93BF92AF921F930F9326
:104E70000E948F3D44E050E0B80185E891E00E9437
:104E800069348DEE92E59F938F93FF92EF921F937B
:104E90000F930E948F3D44E050E0B80189E891E013
:104EA0000E9469348FEE92E59F938F93FF92EF9269
:104EB0001F930F930E948F3D44E050E0B80189E7B3
:104EC00091E00E9469348FEF92E59F938F93DF9278
:104ED000CF921F930F930E948F3D44E050E0B801A2
:104EE0008DE791E00E94693481E093E59F938F9371
:104EF000DF92CF921F930F930E948F3D44E050E0CA
:104F0000B80181E891E00E94693483E093E59F93C2
:104F10008F93DF92CF921F930F930E948F3DCDBF4F
:104F2000DEBF44E050E0B80183E491E00E946934C0
:104F30008DEF92E59F938F93DF92CF921F930F9304
:104F40000E948F3D44E050E0B8018AEE91E00E945B
:104F5000693483E493E59F938F93FF92EF921F93BD
:104F60000F930E948F3D0E94DC23CDBFDEBF81E006
:104F70006E96CDBFDEBFDF91CF911F910F91FF9055
:104F8000EF90DF90CF90BF90AF9008959F92AF9237
:104F9000BF92CF92DF92EF92FF920F931F93CF9326
:104FA000DF93CDB7DEB76E97CDBFDEBF8091BA5429
:104FB0009091BB54A091BC54B091BD54813D974099
:104FC000A105B10508F4B5C00F2EFEE19F2EF02D0E
:104FD0008E010F5F1F4FD801E92D1D92EA95E9F769
:104FE0000F2EFEE5EF2EF4E5FF2EF02DD7011296E1
:104FF000EC91129711967C9111976C910F2EF1E61E
:10500000CF2EF3E5DF2EF02DD60112965C9112978C
:1050100011964C9111973C910F2EF2E5AF2EF8E4CA
:10502000BF2EF02DD50112962C91129711969C91BE
:1050300011978C911F92EF931F927F931F926F9302
:105040001F925F931F924F931F923F931F922F9334
:105050001F929F931F928F9380E994E49F938F9365
:105060001F930F930E94663DF801292D11922A95F6
:10507000E9F7D50112962C91129711969C911197F0
:105080008C911F922F931F929F931F928F938FEA61
:1050900094E49F938F931F930F930E94663DCDBF1F
:1050A000DEBFC8010E944C1AD801E92D1D92EA9575
:1050B000E9F7D60112962C91129711969C911197AF
:1050C0008C911F922F931F929F931F928F938AEB25
:1050D00094E49F938F931F930F930E94663DC801A2
:1050E0000E944C1AF80111929A94E9F7D70112968E
:1050F0002C91129711969C9111978C911F922F933E
:105100001F929F931F928F9384EA94E49F938F93AF
:105110001F930F930E94663DC8010E944C1A109283
:10512000BA541092BB541092BC541092BD54CDBFCF
:10513000DEBF6E96CDBFDEBFDF91CF911F910F9185
:10514000FF90EF90DF90CF90BF90AF909F90089529
:10515000CF92DF92EF92FF920F931F93CF93DF9343
:105160008C01EB016091B1527091B252072E000C8C
:10517000880B990B0E94D83A20E030E04AE754E4CB
:105180000E942E3A6B017C0188E00E94C232969503
:10519000879596958795BC0180E090E00E94D63A6D
:1051A000A70196010E94353C20E030E040E251E446
:1051B0000E942E3A0E94A03A60937B4870937C48EC
:1051C0006B3571056CF08DB180688DB981E0F801A7
:1051D000808380915D54806880935D5411E00CC0A1
:1051E0008DB18F778DB9F801108280915D54806800
:1051F000805880935D5410E080917B4890917C486A
:1052000003970597D0F481E08093494885B1806287
:1052100085B981B38B7F81BB80914848811112C0D1
:105220001092B0541092B1541092B2541092B354E0
:1052300081E08093484811E006C0109249481092DE
:10524000484801C011E0111104C0809149488823E9
:1052500081F10F2EF1E6CF2EF8E4DF2EF02DF601CE
:10526000828D938D0F2EFAE0EF2EF12CF02DB701E9
:105270000E94C93C0E9482328A83F601828D938DFE
:10528000B7010E94C93CCB01B7010E94C93C0E94F2
:1052900082328983F601828D938D64E670E00E94EC
:1052A000C93CCB01B7010E94C93C0E94823288836D
:1052B00004C08DE28A8389838883812FDF91CF9117
:1052C0001F910F91FF90EF90DF90CF9008958F92F4
:1052D0009F92AF92BF92CF92DF92EF92FF920F9385
:1052E0001F93CF93DF93EC01359B75C08091B05431
:1052F0009091B154A091B254B091B354883B9B406B
:10530000A105B10508F067C084E00E94C23284E0C4
:105310000E94C2329695879596958795BC0180E04C
:1053200090E00E94D63A6B017C01609343487093F1
:105330004448809345489093464820E030E04AE74F
:1053400054E40E94E03B18169CF480E090ECA9E73E
:10535000B4E48093434890934448A0934548B09365
:10536000464887EE93E080938F48909390484DC0D5
:105370000DEA12E5F80164857585072E000C880B8F
:10538000990B0E94D83A9B01AC01C701B6010E945B
:10539000353C4B015C01F80166857785072E000CD2
:1053A000880B990B0E94D83AA70196010E94BC393C
:1053B0009B01AC01C501B4010E942E3A20E030E00F
:1053C00040E251E40E942E3A0E94A03A60938F4836
:1053D000709390481AC080914A48811116C08091FC
:1053E0004948811112C087EE93E080938F489093D3
:1053F000904880E090ECA9E7B4E480934348909310
:105400004448A0934548B093464860918F487091B6
:105410009048072E000C880B990B4DE554E50E942F
:105420008A1A81112CC00F2EF1E6EF2EF8E4FF2E20
:10543000F02DF70186A597A50AE010E0B8010E94BB
:10544000C93C0E9482328A83F70186A597A5B801DC
:105450000E94C93CCB01B8010E94C93C0E94823223
:105460008983F70186A597A564E670E00E94C93C90
:10547000CB01B8010E94C93C0E94823288836091AE
:1054800043487091444880914548909146480E9415
:10549000A03ACB01DF91CF911F910F91FF90EF9038
:1054A000DF90CF90BF90AF909F908F9008952F92F4
:1054B0003F924F925F926F927F928F929F92AF92A4
:1054C000BF92CF92DF92EF92FF920F931F93CF93F1
:1054D000DF93CDB7DEB76197CDBFDEBF8F877B018E
:1054E0006A0139011092B8541092B954DB018D90C1
:1054F0009D90AD90BC908091055380FF1BC0609142
:10550000CD527091CE52072E000C880B990B0E9441
:10551000D83A20E030E040E151E40E94353C20E000
:1055200030E040EA50E40E942E3A0E94A03A688B94
:10553000798B06C0E091CD52F091CE52E88BF98B79
:10554000359BB3C08091B0549091B154A091B254A6
:10555000B091B354883B9B40A105B10508F0A5C0AC
:1055600085E00E94C2328C01169507951695079525
:10557000B80180E090E00E94D63A6B877C878D87E7
:105580009E871F930F9385EC94E49F938F938E01D6
:105590000F5F1F4F1F930F930E94663DC8010E942B
:1055A0002D1A80914D480F900F900F900F900F90F3
:1055B0000F90813009F04DC00DEA12E5D8015096E8
:1055C0006D917C915197072E000C880B990B0E94CE
:1055D000D83A9B01AC016B857C858D859E850E94A8
:1055E000353C1B012C01F80162897389072E000CE0
:1055F000880B990B0E94D83A2B853C854D855E859A
:105600000E94BC399B01AC01C201B1010E942E3A3B
:1056100060933F487093404880934148909342483C
:105620000E94A73A7F936F9380ED94E49F938F93AA
:105630008E010F5F1F4F1F930F930E94663DC8019D
:105640000E942D1A0F900F900F900F900F900F90B7
:105650000CC08B859C85AD85BE8580933F4890931B
:105660004048A0934148B093424860913F487091B0
:10567000404880914148909142480E94A73A7F93C8
:105680006F9383EE94E49F938F938E010F5F1F4F70
:105690001F930F930E94663DC8010E942D1A0F9020
:1056A0000F900F900F900F900F9020903F483090E8
:1056B0004048409041485090424820E030E84BE359
:1056C00055E4C201B1010E94293A88230CF0A6C119
:1056D0008091055382FF0FC020E030E040E251E4AA
:1056E000C201B1010E942E3A0E94A03A60933D4847
:1056F00070933E4854C080914D48813031F5C201CD
:10570000B1010E94A03ACB010E94A119A889B989D0
:105710008A0F9B1F80933D4890933E489F938F93A1
:105720008EEE94E49F938F938E010F5F1F4F1F9314
:105730000F930E94663DC8010E942D1A0F900F9092
:105740000F900F900F900F902AC020E030E040E0C3
:105750005EE3C201B1010E94353C20E030E040E24E
:1057600051E40E94BD390E94A03A60933D48709375
:105770003E487F936F938BEF94E49F938F938E01BA
:105780000F5F1F4F1F930F930E94663DC8010E9439
:105790002D1A0F900F900F900F900F900F908091F7
:1057A0003D4890913E488093854890938648F70104
:1057B00040815181628173814031510561057105DC
:1057C00008F47BC02091055320FF03C02AE530E098
:1057D00002C028E230E08217930734F480915D54D0
:1057E000806280935D5407C080915D54806290E236
:1057F000892780935D5401E618E4D80194968D9131
:105800009C9195976AE070E00E94C93C0E948232A8
:10581000F3018283D80194968D919C91959785365A
:1058200091057CF02AE030E0B9010E94C93CCB012F
:10583000B9010E94C93C0E9482328F50F3018183DA
:105840000EC02AE030E0B9010E94C93CCB01B90189
:105850000E94C93C0E948232D30111968C938091A0
:1058600085489091864864E670E00E94C93CCB016F
:105870006AE070E00E94C93C0E948232F30180839A
:1058800080915D54886098E0892780935D54809171
:1058900047488111CEC080914948811104C0809150
:1058A0004A48882331F085B1806285B981B38B7F06
:1058B00081BB81E080934748BCC0FFEF8F1A9F0AED
:1058C000AF0ABF0A2F85222309F440C080914F53AD
:1058D0009091505384369105DCF40AE010E0B80151
:1058E0000E94C93C0E948232D30112968C9380910F
:1058F0004F5390915053B8010E94C93CCB01B8015D
:105900000E94C93C0E9482328F50F30181831AC0E9
:105910000AE010E0B8010E94C93C0E9482328F5018
:10592000D30112968C9380914F5390915053B801AC
:105930000E94C93CCB01B8010E94C93C0E9482323E
:10594000F301818380E4D3018C9362C0BAE2CB1669
:10595000D10459F19CF4F5E1CF16D10491F12CF466
:105960003EE0C316D10409F153C08CE1C816D1043E
:10597000E1F093E2C916D10421F14AC0A4E6CA16A7
:10598000D10499F14CF4E8E3CE16D10471F0FBE3B5
:10599000CF16D104B1F03CC028ECC216D10469F195
:1059A0003FEFC316D104A9F033C081E3D3011296AF
:1059B0008C93129786E411968C9311978DE28C93B9
:1059C00027C082E3F301828386E481838DE28083B2
:1059D0001FC084E7D30112968C9312978FE611961D
:1059E0008C93119788E68C9313C089E7F301828327
:1059F0008CE4818384E680830BC083E3D301129619
:105A00008C93129786E411968C9311978DE28C9368
:105A100080915D54886080935D540BC08DE2F301EA
:105A200080838183828388EB9BE080938548909379
:105A3000864880914A48811112C08091494881115D
:105A40000EC08DE2D3018C9311968C931197129610
:105A50008C9388EB9BE08093854890938648F70170
:105A600080829182A282B3826B857C858D859E85A2
:105A70000E94A73ACB016196CDBFDEBFDF91CF91E7
:105A80001F910F91FF90EF90DF90CF90BF90AF905C
:105A90009F908F907F906F905F904F903F902F904E
:105AA00008958F929F92AF92BF92CF92DF92EF9222
:105AB000FF920F931F93CF93DF93EC018B0181E053
:105AC0000E94C2329695879596958795BC0180E095
:105AD00090E00E94D63A6B017C01F80160A571A5A7
